{
  "_format": "hh-sol-artifact-1",
  "contractName": "TicketToken",
  "sourceName": "src/contracts/TicketToken.sol",
  "abi": [
    {
      "inputs": [
        {
          "internalType": "uint256",
          "name": "_ticketPriceInWei",
          "type": "uint256"
        }
      ],
      "stateMutability": "nonpayable",
      "type": "constructor"
    },
    {
      "anonymous": false,
      "inputs": [
        {
          "indexed": true,
          "internalType": "address",
          "name": "owner",
          "type": "address"
        },
        {
          "indexed": true,
          "internalType": "address",
          "name": "spender",
          "type": "address"
        },
        {
          "indexed": false,
          "internalType": "uint256",
          "name": "value",
          "type": "uint256"
        }
      ],
      "name": "Approval",
      "type": "event"
    },
    {
      "anonymous": false,
      "inputs": [
        {
          "indexed": true,
          "internalType": "address",
          "name": "previousOwner",
          "type": "address"
        },
        {
          "indexed": true,
          "internalType": "address",
          "name": "newOwner",
          "type": "address"
        }
      ],
      "name": "OwnershipTransferred",
      "type": "event"
    },
    {
      "anonymous": false,
      "inputs": [
        {
          "indexed": true,
          "internalType": "address",
          "name": "from",
          "type": "address"
        },
        {
          "indexed": true,
          "internalType": "address",
          "name": "to",
          "type": "address"
        },
        {
          "indexed": false,
          "internalType": "uint256",
          "name": "value",
          "type": "uint256"
        }
      ],
      "name": "Transfer",
      "type": "event"
    },
    {
      "inputs": [
        {
          "internalType": "address",
          "name": "owner",
          "type": "address"
        },
        {
          "internalType": "address",
          "name": "spender",
          "type": "address"
        }
      ],
      "name": "allowance",
      "outputs": [
        {
          "internalType": "uint256",
          "name": "",
          "type": "uint256"
        }
      ],
      "stateMutability": "view",
      "type": "function"
    },
    {
      "inputs": [
        {
          "internalType": "address",
          "name": "spender",
          "type": "address"
        },
        {
          "internalType": "uint256",
          "name": "amount",
          "type": "uint256"
        }
      ],
      "name": "approve",
      "outputs": [
        {
          "internalType": "bool",
          "name": "",
          "type": "bool"
        }
      ],
      "stateMutability": "nonpayable",
      "type": "function"
    },
    {
      "inputs": [
        {
          "internalType": "address",
          "name": "account",
          "type": "address"
        }
      ],
      "name": "balanceOf",
      "outputs": [
        {
          "internalType": "uint256",
          "name": "",
          "type": "uint256"
        }
      ],
      "stateMutability": "view",
      "type": "function"
    },
    {
      "inputs": [],
      "name": "buyToken",
      "outputs": [],
      "stateMutability": "payable",
      "type": "function"
    },
    {
      "inputs": [],
      "name": "decimals",
      "outputs": [
        {
          "internalType": "uint8",
          "name": "",
          "type": "uint8"
        }
      ],
      "stateMutability": "view",
      "type": "function"
    },
    {
      "inputs": [
        {
          "internalType": "address",
          "name": "spender",
          "type": "address"
        },
        {
          "internalType": "uint256",
          "name": "subtractedValue",
          "type": "uint256"
        }
      ],
      "name": "decreaseAllowance",
      "outputs": [
        {
          "internalType": "bool",
          "name": "",
          "type": "bool"
        }
      ],
      "stateMutability": "nonpayable",
      "type": "function"
    },
    {
      "inputs": [
        {
          "internalType": "address",
          "name": "spender",
          "type": "address"
        },
        {
          "internalType": "uint256",
          "name": "addedValue",
          "type": "uint256"
        }
      ],
      "name": "increaseAllowance",
      "outputs": [
        {
          "internalType": "bool",
          "name": "",
          "type": "bool"
        }
      ],
      "stateMutability": "nonpayable",
      "type": "function"
    },
    {
      "inputs": [],
      "name": "name",
      "outputs": [
        {
          "internalType": "string",
          "name": "",
          "type": "string"
        }
      ],
      "stateMutability": "view",
      "type": "function"
    },
    {
      "inputs": [],
      "name": "owner",
      "outputs": [
        {
          "internalType": "address",
          "name": "",
          "type": "address"
        }
      ],
      "stateMutability": "view",
      "type": "function"
    },
    {
      "inputs": [
        {
          "internalType": "uint256",
          "name": "amount",
          "type": "uint256"
        }
      ],
      "name": "purchaseTicket",
      "outputs": [],
      "stateMutability": "payable",
      "type": "function"
    },
    {
      "inputs": [],
      "name": "renounceOwnership",
      "outputs": [],
      "stateMutability": "nonpayable",
      "type": "function"
    },
    {
      "inputs": [
        {
          "internalType": "uint256",
          "name": "amount",
          "type": "uint256"
        }
      ],
      "name": "returnToken",
      "outputs": [],
      "stateMutability": "nonpayable",
      "type": "function"
    },
    {
      "inputs": [
        {
          "internalType": "uint256",
          "name": "_ticketPriceInWei",
          "type": "uint256"
        }
      ],
      "name": "setTicketPrice",
      "outputs": [],
      "stateMutability": "nonpayable",
      "type": "function"
    },
    {
      "inputs": [],
      "name": "symbol",
      "outputs": [
        {
          "internalType": "string",
          "name": "",
          "type": "string"
        }
      ],
      "stateMutability": "view",
      "type": "function"
    },
    {
      "inputs": [],
      "name": "ticketPriceInWei",
      "outputs": [
        {
          "internalType": "uint256",
          "name": "",
          "type": "uint256"
        }
      ],
      "stateMutability": "view",
      "type": "function"
    },
    {
      "inputs": [],
      "name": "totalSupply",
      "outputs": [
        {
          "internalType": "uint256",
          "name": "",
          "type": "uint256"
        }
      ],
      "stateMutability": "view",
      "type": "function"
    },
    {
      "inputs": [
        {
          "internalType": "address",
          "name": "recipient",
          "type": "address"
        },
        {
          "internalType": "uint256",
          "name": "amount",
          "type": "uint256"
        }
      ],
      "name": "transfer",
      "outputs": [
        {
          "internalType": "bool",
          "name": "",
          "type": "bool"
        }
      ],
      "stateMutability": "nonpayable",
      "type": "function"
    },
    {
      "inputs": [
        {
          "internalType": "address",
          "name": "sender",
          "type": "address"
        },
        {
          "internalType": "address",
          "name": "recipient",
          "type": "address"
        },
        {
          "internalType": "uint256",
          "name": "amount",
          "type": "uint256"
        }
      ],
      "name": "transferFrom",
      "outputs": [
        {
          "internalType": "bool",
          "name": "",
          "type": "bool"
        }
      ],
      "stateMutability": "nonpayable",
      "type": "function"
    },
    {
      "inputs": [
        {
          "internalType": "address",
          "name": "newOwner",
          "type": "address"
        }
      ],
      "name": "transferOwnership",
      "outputs": [],
      "stateMutability": "nonpayable",
      "type": "function"
    },
    {
      "inputs": [
        {
          "internalType": "address",
          "name": "recipient",
          "type": "address"
        },
        {
          "internalType": "uint256",
          "name": "amount",
          "type": "uint256"
        }
      ],
      "name": "transferTicket",
      "outputs": [],
      "stateMutability": "nonpayable",
      "type": "function"
    },
    {
      "inputs": [],
      "name": "withdraw",
      "outputs": [],
      "stateMutability": "nonpayable",
      "type": "function"
    }
  ],
  "bytecode": "0x60806040523480156200001157600080fd5b506040516200292b3803806200292b83398181016040528101906200003791906200029a565b6040518060400160405280600b81526020017f5469636b6574546f6b656e0000000000000000000000000000000000000000008152506040518060400160405280600681526020017f5449434b455400000000000000000000000000000000000000000000000000008152508160039080519060200190620000bb929190620001d3565b508060049080519060200190620000d4929190620001d3565b505050620000f7620000eb6200010560201b60201c565b6200010d60201b60201c565b80600681905550506200034f565b600033905090565b6000600560009054906101000a900473ffffffffffffffffffffffffffffffffffffffff16905081600560006101000a81548173ffffffffffffffffffffffffffffffffffffffff021916908373ffffffffffffffffffffffffffffffffffffffff1602179055508173ffffffffffffffffffffffffffffffffffffffff168173ffffffffffffffffffffffffffffffffffffffff167f8be0079c531659141344cd1fd0a4f28419497f9722a3daafe3b4186f6b6457e060405160405180910390a35050565b828054620001e190620002d0565b90600052602060002090601f01602090048101928262000205576000855562000251565b82601f106200022057805160ff191683800117855562000251565b8280016001018555821562000251579182015b828111156200025057825182559160200191906001019062000233565b5b50905062000260919062000264565b5090565b5b808211156200027f57600081600090555060010162000265565b5090565b600081519050620002948162000335565b92915050565b600060208284031215620002ad57600080fd5b6000620002bd8482850162000283565b91505092915050565b6000819050919050565b60006002820490506001821680620002e957607f821691505b602082108114156200030057620002ff62000306565b5b50919050565b7f4e487b7100000000000000000000000000000000000000000000000000000000600052602260045260246000fd5b6200034081620002c6565b81146200034c57600080fd5b50565b6125cc806200035f6000396000f3fe60806040526004361061012a5760003560e01c806370a08231116100ab578063a48217191161006f578063a4821719146103e0578063a9059cbb146103ea578063b948348c14610427578063dd62ed3e14610443578063efc08a6214610480578063f2fde38b146104ab5761012a565b806370a08231146102f9578063715018a6146103365780638da5cb5b1461034d57806395d89b4114610378578063a457c2d7146103a35761012a565b8063313ce567116100f2578063313ce5671461022857806339509351146102535780633ccfd60b1461029057806351958a56146102a75780636178efee146102d05761012a565b806306fdde031461012f578063095ea7b31461015a578063159816501461019757806318160ddd146101c057806323b872dd146101eb575b600080fd5b34801561013b57600080fd5b506101446104d4565b6040516101519190611afa565b60405180910390f35b34801561016657600080fd5b50610181600480360381019061017c91906117dd565b610566565b60405161018e9190611adf565b60405180910390f35b3480156101a357600080fd5b506101be60048036038101906101b99190611819565b610584565b005b3480156101cc57600080fd5b506101d561060a565b6040516101e29190611cfc565b60405180910390f35b3480156101f757600080fd5b50610212600480360381019061020d919061178e565b610614565b60405161021f9190611adf565b60405180910390f35b34801561023457600080fd5b5061023d61070c565b60405161024a9190611d17565b60405180910390f35b34801561025f57600080fd5b5061027a600480360381019061027591906117dd565b610715565b6040516102879190611adf565b60405180910390f35b34801561029c57600080fd5b506102a56107c1565b005b3480156102b357600080fd5b506102ce60048036038101906102c991906117dd565b61088d565b005b3480156102dc57600080fd5b506102f760048036038101906102f29190611819565b6108ba565b005b34801561030557600080fd5b50610320600480360381019061031b9190611729565b61098a565b60405161032d9190611cfc565b60405180910390f35b34801561034257600080fd5b5061034b6109d2565b005b34801561035957600080fd5b50610362610a5a565b60405161036f9190611ac4565b60405180910390f35b34801561038457600080fd5b5061038d610a84565b60405161039a9190611afa565b60405180910390f35b3480156103af57600080fd5b506103ca60048036038101906103c591906117dd565b610b16565b6040516103d79190611adf565b60405180910390f35b6103e8610c01565b005b3480156103f657600080fd5b50610411600480360381019061040c91906117dd565b610c86565b60405161041e9190611adf565b60405180910390f35b610441600480360381019061043c9190611819565b610ca4565b005b34801561044f57600080fd5b5061046a60048036038101906104659190611752565b610d1f565b6040516104779190611cfc565b60405180910390f35b34801561048c57600080fd5b50610495610da6565b6040516104a29190611cfc565b60405180910390f35b3480156104b757600080fd5b506104d260048036038101906104cd9190611729565b610dac565b005b6060600380546104e39061205c565b80601f016020809104026020016040519081016040528092919081815260200182805461050f9061205c565b801561055c5780601f106105315761010080835404028352916020019161055c565b820191906000526020600020905b81548152906001019060200180831161053f57829003601f168201915b5050505050905090565b600061057a610573610ea4565b8484610eac565b6001905092915050565b61058c610ea4565b73ffffffffffffffffffffffffffffffffffffffff166105aa610a5a565b73ffffffffffffffffffffffffffffffffffffffff1614610600576040517f08c379a00000000000000000000000000000000000000000000000000000000081526004016105f790611bfc565b60405180910390fd5b8060068190555050565b6000600254905090565b6000610621848484611077565b6000600160008673ffffffffffffffffffffffffffffffffffffffff1673ffffffffffffffffffffffffffffffffffffffff168152602001908152602001600020600061066c610ea4565b73ffffffffffffffffffffffffffffffffffffffff1673ffffffffffffffffffffffffffffffffffffffff168152602001908152602001600020549050828110156106ec576040517f08c379a00000000000000000000000000000000000000000000000000000000081526004016106e390611bdc565b60405180910390fd5b610700856106f8610ea4565b858403610eac565b60019150509392505050565b60006012905090565b60006107b7610722610ea4565b848460016000610730610ea4565b73ffffffffffffffffffffffffffffffffffffffff1673ffffffffffffffffffffffffffffffffffffffff16815260200190815260200160002060008873ffffffffffffffffffffffffffffffffffffffff1673ffffffffffffffffffffffffffffffffffffffff168152602001908152602001600020546107b29190611d4e565b610eac565b6001905092915050565b6107c9610ea4565b73ffffffffffffffffffffffffffffffffffffffff166107e7610a5a565b73ffffffffffffffffffffffffffffffffffffffff161461083d576040517f08c379a000000000000000000000000000000000000000000000000000000000815260040161083490611bfc565b60405180910390fd5b610845610a5a565b73ffffffffffffffffffffffffffffffffffffffff166108fc479081150290604051600060405180830381858888f1935050505015801561088a573d6000803e3d6000fd5b50565b6108b6338361089a61070c565b600a6108a69190611e28565b846108b19190611f46565b611077565b5050565b806108c43361098a565b1015610905576040517f08c379a00000000000000000000000000000000000000000000000000000000081526004016108fc90611c9c565b60405180910390fd5b600060065461091261070c565b600a61091e9190611e28565b836109299190611da4565b6109339190611f46565b90503373ffffffffffffffffffffffffffffffffffffffff166108fc829081150290604051600060405180830381858888f1935050505015801561097b573d6000803e3d6000fd5b5061098633836112f8565b5050565b60008060008373ffffffffffffffffffffffffffffffffffffffff1673ffffffffffffffffffffffffffffffffffffffff168152602001908152602001600020549050919050565b6109da610ea4565b73ffffffffffffffffffffffffffffffffffffffff166109f8610a5a565b73ffffffffffffffffffffffffffffffffffffffff1614610a4e576040517f08c379a0000000000000000000000000000000000000000000000000000000008152600401610a4590611bfc565b60405180910390fd5b610a5860006114cf565b565b6000600560009054906101000a900473ffffffffffffffffffffffffffffffffffffffff16905090565b606060048054610a939061205c565b80601f0160208091040260200160405190810160405280929190818152602001828054610abf9061205c565b8015610b0c5780601f10610ae157610100808354040283529160200191610b0c565b820191906000526020600020905b815481529060010190602001808311610aef57829003601f168201915b5050505050905090565b60008060016000610b25610ea4565b73ffffffffffffffffffffffffffffffffffffffff1673ffffffffffffffffffffffffffffffffffffffff16815260200190815260200160002060008573ffffffffffffffffffffffffffffffffffffffff1673ffffffffffffffffffffffffffffffffffffffff16815260200190815260200160002054905082811015610be2576040517f08c379a0000000000000000000000000000000000000000000000000000000008152600401610bd990611cbc565b60405180910390fd5b610bf6610bed610ea4565b85858403610eac565b600191505092915050565b600654341015610c46576040517f08c379a0000000000000000000000000000000000000000000000000000000008152600401610c3d90611c7c565b60405180910390fd5b600060065434610c569190611da4565b9050610c6061070c565b600a610c6c9190611e28565b81610c779190611f46565b9050610c833382611595565b50565b6000610c9a610c93610ea4565b8484611077565b6001905092915050565b80600654610cb29190611f46565b341015610cf4576040517f08c379a0000000000000000000000000000000000000000000000000000000008152600401610ceb90611b5c565b60405180910390fd5b610d1c33610d0061070c565b600a610d0c9190611e28565b83610d179190611f46565b611595565b50565b6000600160008473ffffffffffffffffffffffffffffffffffffffff1673ffffffffffffffffffffffffffffffffffffffff16815260200190815260200160002060008373ffffffffffffffffffffffffffffffffffffffff1673ffffffffffffffffffffffffffffffffffffffff16815260200190815260200160002054905092915050565b60065481565b610db4610ea4565b73ffffffffffffffffffffffffffffffffffffffff16610dd2610a5a565b73ffffffffffffffffffffffffffffffffffffffff1614610e28576040517f08c379a0000000000000000000000000000000000000000000000000000000008152600401610e1f90611bfc565b60405180910390fd5b600073ffffffffffffffffffffffffffffffffffffffff168173ffffffffffffffffffffffffffffffffffffffff161415610e98576040517f08c379a0000000000000000000000000000000000000000000000000000000008152600401610e8f90611b7c565b60405180910390fd5b610ea1816114cf565b50565b600033905090565b600073ffffffffffffffffffffffffffffffffffffffff168373ffffffffffffffffffffffffffffffffffffffff161415610f1c576040517f08c379a0000000000000000000000000000000000000000000000000000000008152600401610f1390611c5c565b60405180910390fd5b600073ffffffffffffffffffffffffffffffffffffffff168273ffffffffffffffffffffffffffffffffffffffff161415610f8c576040517f08c379a0000000000000000000000000000000000000000000000000000000008152600401610f8390611b9c565b60405180910390fd5b80600160008573ffffffffffffffffffffffffffffffffffffffff1673ffffffffffffffffffffffffffffffffffffffff16815260200190815260200160002060008473ffffffffffffffffffffffffffffffffffffffff1673ffffffffffffffffffffffffffffffffffffffff168152602001908152602001600020819055508173ffffffffffffffffffffffffffffffffffffffff168373ffffffffffffffffffffffffffffffffffffffff167f8c5be1e5ebec7d5bd14f71427d1e84f3dd0314c0f7b2291e5b200ac8c7c3b9258360405161106a9190611cfc565b60405180910390a3505050565b600073ffffffffffffffffffffffffffffffffffffffff168373ffffffffffffffffffffffffffffffffffffffff1614156110e7576040517f08c379a00000000000000000000000000000000000000000000000000000000081526004016110de90611c3c565b60405180910390fd5b600073ffffffffffffffffffffffffffffffffffffffff168273ffffffffffffffffffffffffffffffffffffffff161415611157576040517f08c379a000000000000000000000000000000000000000000000000000000000815260040161114e90611b1c565b60405180910390fd5b6111628383836116f5565b60008060008573ffffffffffffffffffffffffffffffffffffffff1673ffffffffffffffffffffffffffffffffffffffff168152602001908152602001600020549050818110156111e8576040517f08c379a00000000000000000000000000000000000000000000000000000000081526004016111df90611bbc565b60405180910390fd5b8181036000808673ffffffffffffffffffffffffffffffffffffffff1673ffffffffffffffffffffffffffffffffffffffff16815260200190815260200160002081905550816000808573ffffffffffffffffffffffffffffffffffffffff1673ffffffffffffffffffffffffffffffffffffffff168152602001908152602001600020600082825461127b9190611d4e565b925050819055508273ffffffffffffffffffffffffffffffffffffffff168473ffffffffffffffffffffffffffffffffffffffff167fddf252ad1be2c89b69c2b068fc378daa952ba7f163c4a11628f55a4df523b3ef846040516112df9190611cfc565b60405180910390a36112f28484846116fa565b50505050565b600073ffffffffffffffffffffffffffffffffffffffff168273ffffffffffffffffffffffffffffffffffffffff161415611368576040517f08c379a000000000000000000000000000000000000000000000000000000000815260040161135f90611c1c565b60405180910390fd5b611374826000836116f5565b60008060008473ffffffffffffffffffffffffffffffffffffffff1673ffffffffffffffffffffffffffffffffffffffff168152602001908152602001600020549050818110156113fa576040517f08c379a00000000000000000000000000000000000000000000000000000000081526004016113f190611b3c565b60405180910390fd5b8181036000808573ffffffffffffffffffffffffffffffffffffffff1673ffffffffffffffffffffffffffffffffffffffff1681526020019081526020016000208190555081600260008282546114519190611fa0565b92505081905550600073ffffffffffffffffffffffffffffffffffffffff168373ffffffffffffffffffffffffffffffffffffffff167fddf252ad1be2c89b69c2b068fc378daa952ba7f163c4a11628f55a4df523b3ef846040516114b69190611cfc565b60405180910390a36114ca836000846116fa565b505050565b6000600560009054906101000a900473ffffffffffffffffffffffffffffffffffffffff16905081600560006101000a81548173ffffffffffffffffffffffffffffffffffffffff021916908373ffffffffffffffffffffffffffffffffffffffff1602179055508173ffffffffffffffffffffffffffffffffffffffff168173ffffffffffffffffffffffffffffffffffffffff167f8be0079c531659141344cd1fd0a4f28419497f9722a3daafe3b4186f6b6457e060405160405180910390a35050565b600073ffffffffffffffffffffffffffffffffffffffff168273ffffffffffffffffffffffffffffffffffffffff161415611605576040517f08c379a00000000000000000000000000000000000000000000000000000000081526004016115fc90611cdc565b60405180910390fd5b611611600083836116f5565b80600260008282546116239190611d4e565b92505081905550806000808473ffffffffffffffffffffffffffffffffffffffff1673ffffffffffffffffffffffffffffffffffffffff16815260200190815260200160002060008282546116789190611d4e565b925050819055508173ffffffffffffffffffffffffffffffffffffffff16600073ffffffffffffffffffffffffffffffffffffffff167fddf252ad1be2c89b69c2b068fc378daa952ba7f163c4a11628f55a4df523b3ef836040516116dd9190611cfc565b60405180910390a36116f1600083836116fa565b5050565b505050565b505050565b60008135905061170e81612568565b92915050565b6000813590506117238161257f565b92915050565b60006020828403121561173b57600080fd5b6000611749848285016116ff565b91505092915050565b6000806040838503121561176557600080fd5b6000611773858286016116ff565b9250506020611784858286016116ff565b9150509250929050565b6000806000606084860312156117a357600080fd5b60006117b1868287016116ff565b93505060206117c2868287016116ff565b92505060406117d386828701611714565b9150509250925092565b600080604083850312156117f057600080fd5b60006117fe858286016116ff565b925050602061180f85828601611714565b9150509250929050565b60006020828403121561182b57600080fd5b600061183984828501611714565b91505092915050565b61184b81611fd4565b82525050565b61185a81611fe6565b82525050565b600061186b82611d32565b6118758185611d3d565b9350611885818560208601612029565b61188e8161211b565b840191505092915050565b60006118a6602383611d3d565b91506118b182612139565b604082019050919050565b60006118c9602283611d3d565b91506118d482612188565b604082019050919050565b60006118ec601583611d3d565b91506118f7826121d7565b602082019050919050565b600061190f602683611d3d565b915061191a82612200565b604082019050919050565b6000611932602283611d3d565b915061193d8261224f565b604082019050919050565b6000611955602683611d3d565b91506119608261229e565b604082019050919050565b6000611978602883611d3d565b9150611983826122ed565b604082019050919050565b600061199b602083611d3d565b91506119a68261233c565b602082019050919050565b60006119be602183611d3d565b91506119c982612365565b604082019050919050565b60006119e1602583611d3d565b91506119ec826123b4565b604082019050919050565b6000611a04602483611d3d565b9150611a0f82612403565b604082019050919050565b6000611a27602183611d3d565b9150611a3282612452565b604082019050919050565b6000611a4a602283611d3d565b9150611a55826124a1565b604082019050919050565b6000611a6d602583611d3d565b9150611a78826124f0565b604082019050919050565b6000611a90601f83611d3d565b9150611a9b8261253f565b602082019050919050565b611aaf81612012565b82525050565b611abe8161201c565b82525050565b6000602082019050611ad96000830184611842565b92915050565b6000602082019050611af46000830184611851565b92915050565b60006020820190508181036000830152611b148184611860565b905092915050565b60006020820190508181036000830152611b3581611899565b9050919050565b60006020820190508181036000830152611b55816118bc565b9050919050565b60006020820190508181036000830152611b75816118df565b9050919050565b60006020820190508181036000830152611b9581611902565b9050919050565b60006020820190508181036000830152611bb581611925565b9050919050565b60006020820190508181036000830152611bd581611948565b9050919050565b60006020820190508181036000830152611bf58161196b565b9050919050565b60006020820190508181036000830152611c158161198e565b9050919050565b60006020820190508181036000830152611c35816119b1565b9050919050565b60006020820190508181036000830152611c55816119d4565b9050919050565b60006020820190508181036000830152611c75816119f7565b9050919050565b60006020820190508181036000830152611c9581611a1a565b9050919050565b60006020820190508181036000830152611cb581611a3d565b9050919050565b60006020820190508181036000830152611cd581611a60565b9050919050565b60006020820190508181036000830152611cf581611a83565b9050919050565b6000602082019050611d116000830184611aa6565b92915050565b6000602082019050611d2c6000830184611ab5565b92915050565b600081519050919050565b600082825260208201905092915050565b6000611d5982612012565b9150611d6483612012565b9250827fffffffffffffffffffffffffffffffffffffffffffffffffffffffffffffffff03821115611d9957611d9861208e565b5b828201905092915050565b6000611daf82612012565b9150611dba83612012565b925082611dca57611dc96120bd565b5b828204905092915050565b6000808291508390505b6001851115611e1f57808604811115611dfb57611dfa61208e565b5b6001851615611e0a5780820291505b8081029050611e188561212c565b9450611ddf565b94509492505050565b6000611e3382612012565b9150611e3e8361201c565b9250611e6b7fffffffffffffffffffffffffffffffffffffffffffffffffffffffffffffffff8484611e73565b905092915050565b600082611e835760019050611f3f565b81611e915760009050611f3f565b8160018114611ea75760028114611eb157611ee0565b6001915050611f3f565b60ff841115611ec357611ec261208e565b5b8360020a915084821115611eda57611ed961208e565b5b50611f3f565b5060208310610133831016604e8410600b8410161715611f155782820a905083811115611f1057611f0f61208e565b5b611f3f565b611f228484846001611dd5565b92509050818404811115611f3957611f3861208e565b5b81810290505b9392505050565b6000611f5182612012565b9150611f5c83612012565b9250817fffffffffffffffffffffffffffffffffffffffffffffffffffffffffffffffff0483118215151615611f9557611f9461208e565b5b828202905092915050565b6000611fab82612012565b9150611fb683612012565b925082821015611fc957611fc861208e565b5b828203905092915050565b6000611fdf82611ff2565b9050919050565b60008115159050919050565b600073ffffffffffffffffffffffffffffffffffffffff82169050919050565b6000819050919050565b600060ff82169050919050565b60005b8381101561204757808201518184015260208101905061202c565b83811115612056576000848401525b50505050565b6000600282049050600182168061207457607f821691505b60208210811415612088576120876120ec565b5b50919050565b7f4e487b7100000000000000000000000000000000000000000000000000000000600052601160045260246000fd5b7f4e487b7100000000000000000000000000000000000000000000000000000000600052601260045260246000fd5b7f4e487b7100000000000000000000000000000000000000000000000000000000600052602260045260246000fd5b6000601f19601f8301169050919050565b60008160011c9050919050565b7f45524332303a207472616e7366657220746f20746865207a65726f206164647260008201527f6573730000000000000000000000000000000000000000000000000000000000602082015250565b7f45524332303a206275726e20616d6f756e7420657863656564732062616c616e60008201527f6365000000000000000000000000000000000000000000000000000000000000602082015250565b7f4e6f7420656e6f7567682045746865722073656e740000000000000000000000600082015250565b7f4f776e61626c653a206e6577206f776e657220697320746865207a65726f206160008201527f6464726573730000000000000000000000000000000000000000000000000000602082015250565b7f45524332303a20617070726f766520746f20746865207a65726f20616464726560008201527f7373000000000000000000000000000000000000000000000000000000000000602082015250565b7f45524332303a207472616e7366657220616d6f756e742065786365656473206260008201527f616c616e63650000000000000000000000000000000000000000000000000000602082015250565b7f45524332303a207472616e7366657220616d6f756e742065786365656473206160008201527f6c6c6f77616e6365000000000000000000000000000000000000000000000000602082015250565b7f4f776e61626c653a2063616c6c6572206973206e6f7420746865206f776e6572600082015250565b7f45524332303a206275726e2066726f6d20746865207a65726f2061646472657360008201527f7300000000000000000000000000000000000000000000000000000000000000602082015250565b7f45524332303a207472616e736665722066726f6d20746865207a65726f20616460008201527f6472657373000000000000000000000000000000000000000000000000000000602082015250565b7f45524332303a20617070726f76652066726f6d20746865207a65726f2061646460008201527f7265737300000000000000000000000000000000000000000000000000000000602082015250565b7f4e6f7420656e6f756768204554482073656e743b20636865636b20707269636560008201527f2100000000000000000000000000000000000000000000000000000000000000602082015250565b7f4e6f7420656e6f75676820746f6b656e7320696e20796f7572206163636f756e60008201527f7421000000000000000000000000000000000000000000000000000000000000602082015250565b7f45524332303a2064656372656173656420616c6c6f77616e63652062656c6f7760008201527f207a65726f000000000000000000000000000000000000000000000000000000602082015250565b7f45524332303a206d696e7420746f20746865207a65726f206164647265737300600082015250565b61257181611fd4565b811461257c57600080fd5b50565b61258881612012565b811461259357600080fd5b5056fea26469706673582212207864e233423faa3fcf64fa805e393b0f3b57d090d397751cc676121d22716dab64736f6c63430008040033",
  "linkReferences": {},
  "deployedLinkReferences": {}
}