{
  "contractName": "TicketToken",
  "abi": [
    {
      "inputs": [
        {
          "internalType": "uint256",
          "name": "_ticketPriceInWei",
          "type": "uint256"
        }
      ],
      "stateMutability": "nonpayable",
      "type": "constructor"
    },
    {
      "anonymous": false,
      "inputs": [
        {
          "indexed": true,
          "internalType": "address",
          "name": "owner",
          "type": "address"
        },
        {
          "indexed": true,
          "internalType": "address",
          "name": "spender",
          "type": "address"
        },
        {
          "indexed": false,
          "internalType": "uint256",
          "name": "value",
          "type": "uint256"
        }
      ],
      "name": "Approval",
      "type": "event"
    },
    {
      "anonymous": false,
      "inputs": [
        {
          "indexed": true,
          "internalType": "address",
          "name": "previousOwner",
          "type": "address"
        },
        {
          "indexed": true,
          "internalType": "address",
          "name": "newOwner",
          "type": "address"
        }
      ],
      "name": "OwnershipTransferred",
      "type": "event"
    },
    {
      "anonymous": false,
      "inputs": [
        {
          "indexed": true,
          "internalType": "address",
          "name": "from",
          "type": "address"
        },
        {
          "indexed": true,
          "internalType": "address",
          "name": "to",
          "type": "address"
        },
        {
          "indexed": false,
          "internalType": "uint256",
          "name": "value",
          "type": "uint256"
        }
      ],
      "name": "Transfer",
      "type": "event"
    },
    {
      "inputs": [
        {
          "internalType": "address",
          "name": "owner",
          "type": "address"
        },
        {
          "internalType": "address",
          "name": "spender",
          "type": "address"
        }
      ],
      "name": "allowance",
      "outputs": [
        {
          "internalType": "uint256",
          "name": "",
          "type": "uint256"
        }
      ],
      "stateMutability": "view",
      "type": "function"
    },
    {
      "inputs": [
        {
          "internalType": "address",
          "name": "spender",
          "type": "address"
        },
        {
          "internalType": "uint256",
          "name": "amount",
          "type": "uint256"
        }
      ],
      "name": "approve",
      "outputs": [
        {
          "internalType": "bool",
          "name": "",
          "type": "bool"
        }
      ],
      "stateMutability": "nonpayable",
      "type": "function"
    },
    {
      "inputs": [
        {
          "internalType": "address",
          "name": "account",
          "type": "address"
        }
      ],
      "name": "balanceOf",
      "outputs": [
        {
          "internalType": "uint256",
          "name": "",
          "type": "uint256"
        }
      ],
      "stateMutability": "view",
      "type": "function"
    },
    {
      "inputs": [],
      "name": "decimals",
      "outputs": [
        {
          "internalType": "uint8",
          "name": "",
          "type": "uint8"
        }
      ],
      "stateMutability": "view",
      "type": "function"
    },
    {
      "inputs": [
        {
          "internalType": "address",
          "name": "spender",
          "type": "address"
        },
        {
          "internalType": "uint256",
          "name": "subtractedValue",
          "type": "uint256"
        }
      ],
      "name": "decreaseAllowance",
      "outputs": [
        {
          "internalType": "bool",
          "name": "",
          "type": "bool"
        }
      ],
      "stateMutability": "nonpayable",
      "type": "function"
    },
    {
      "inputs": [
        {
          "internalType": "address",
          "name": "spender",
          "type": "address"
        },
        {
          "internalType": "uint256",
          "name": "addedValue",
          "type": "uint256"
        }
      ],
      "name": "increaseAllowance",
      "outputs": [
        {
          "internalType": "bool",
          "name": "",
          "type": "bool"
        }
      ],
      "stateMutability": "nonpayable",
      "type": "function"
    },
    {
      "inputs": [],
      "name": "name",
      "outputs": [
        {
          "internalType": "string",
          "name": "",
          "type": "string"
        }
      ],
      "stateMutability": "view",
      "type": "function"
    },
    {
      "inputs": [],
      "name": "owner",
      "outputs": [
        {
          "internalType": "address",
          "name": "",
          "type": "address"
        }
      ],
      "stateMutability": "view",
      "type": "function"
    },
    {
      "inputs": [],
      "name": "renounceOwnership",
      "outputs": [],
      "stateMutability": "nonpayable",
      "type": "function"
    },
    {
      "inputs": [],
      "name": "symbol",
      "outputs": [
        {
          "internalType": "string",
          "name": "",
          "type": "string"
        }
      ],
      "stateMutability": "view",
      "type": "function"
    },
    {
      "inputs": [],
      "name": "ticketPriceInWei",
      "outputs": [
        {
          "internalType": "uint256",
          "name": "",
          "type": "uint256"
        }
      ],
      "stateMutability": "view",
      "type": "function"
    },
    {
      "inputs": [],
      "name": "totalSupply",
      "outputs": [
        {
          "internalType": "uint256",
          "name": "",
          "type": "uint256"
        }
      ],
      "stateMutability": "view",
      "type": "function"
    },
    {
      "inputs": [
        {
          "internalType": "address",
          "name": "recipient",
          "type": "address"
        },
        {
          "internalType": "uint256",
          "name": "amount",
          "type": "uint256"
        }
      ],
      "name": "transfer",
      "outputs": [
        {
          "internalType": "bool",
          "name": "",
          "type": "bool"
        }
      ],
      "stateMutability": "nonpayable",
      "type": "function"
    },
    {
      "inputs": [
        {
          "internalType": "address",
          "name": "sender",
          "type": "address"
        },
        {
          "internalType": "address",
          "name": "recipient",
          "type": "address"
        },
        {
          "internalType": "uint256",
          "name": "amount",
          "type": "uint256"
        }
      ],
      "name": "transferFrom",
      "outputs": [
        {
          "internalType": "bool",
          "name": "",
          "type": "bool"
        }
      ],
      "stateMutability": "nonpayable",
      "type": "function"
    },
    {
      "inputs": [
        {
          "internalType": "address",
          "name": "newOwner",
          "type": "address"
        }
      ],
      "name": "transferOwnership",
      "outputs": [],
      "stateMutability": "nonpayable",
      "type": "function"
    },
    {
      "inputs": [
        {
          "internalType": "uint256",
          "name": "amount",
          "type": "uint256"
        }
      ],
      "name": "purchaseTicket",
      "outputs": [],
      "stateMutability": "payable",
      "type": "function"
    },
    {
      "inputs": [
        {
          "internalType": "address",
          "name": "recipient",
          "type": "address"
        },
        {
          "internalType": "uint256",
          "name": "amount",
          "type": "uint256"
        }
      ],
      "name": "transferTicket",
      "outputs": [],
      "stateMutability": "nonpayable",
      "type": "function"
    },
    {
      "inputs": [],
      "name": "withdraw",
      "outputs": [],
      "stateMutability": "nonpayable",
      "type": "function"
    },
    {
      "inputs": [
        {
          "internalType": "uint256",
          "name": "_ticketPriceInWei",
          "type": "uint256"
        }
      ],
      "name": "setTicketPrice",
      "outputs": [],
      "stateMutability": "nonpayable",
      "type": "function"
    },
    {
      "inputs": [],
      "name": "buyToken",
      "outputs": [],
      "stateMutability": "payable",
      "type": "function"
    },
    {
      "inputs": [
        {
          "internalType": "uint256",
          "name": "amount",
          "type": "uint256"
        }
      ],
      "name": "returnToken",
      "outputs": [],
      "stateMutability": "nonpayable",
      "type": "function"
    }
  ],
  "bytecode": "0x608060405234801562000010575f80fd5b5060405162002a3b38038062002a3b8339818101604052810190620000369190620001fc565b6040518060400160405280600b81526020017f5469636b6574546f6b656e0000000000000000000000000000000000000000008152506040518060400160405280600681526020017f5449434b455400000000000000000000000000000000000000000000000000008152508160039081620000b3919062000487565b508060049081620000c5919062000487565b505050620000e8620000dc620000f660201b60201c565b620000fd60201b60201c565b80600681905550506200056b565b5f33905090565b5f60055f9054906101000a900473ffffffffffffffffffffffffffffffffffffffff1690508160055f6101000a81548173ffffffffffffffffffffffffffffffffffffffff021916908373ffffffffffffffffffffffffffffffffffffffff1602179055508173ffffffffffffffffffffffffffffffffffffffff168173ffffffffffffffffffffffffffffffffffffffff167f8be0079c531659141344cd1fd0a4f28419497f9722a3daafe3b4186f6b6457e060405160405180910390a35050565b5f80fd5b5f819050919050565b620001d881620001c4565b8114620001e3575f80fd5b50565b5f81519050620001f681620001cd565b92915050565b5f60208284031215620002145762000213620001c0565b5b5f6200022384828501620001e6565b91505092915050565b5f81519050919050565b7f4e487b71000000000000000000000000000000000000000000000000000000005f52604160045260245ffd5b7f4e487b71000000000000000000000000000000000000000000000000000000005f52602260045260245ffd5b5f6002820490506001821680620002a857607f821691505b602082108103620002be57620002bd62000263565b5b50919050565b5f819050815f5260205f209050919050565b5f6020601f8301049050919050565b5f82821b905092915050565b5f60088302620003227fffffffffffffffffffffffffffffffffffffffffffffffffffffffffffffffff82620002e5565b6200032e8683620002e5565b95508019841693508086168417925050509392505050565b5f819050919050565b5f6200036f620003696200036384620001c4565b62000346565b620001c4565b9050919050565b5f819050919050565b6200038a836200034f565b620003a2620003998262000376565b848454620002f1565b825550505050565b5f90565b620003b8620003aa565b620003c58184846200037f565b505050565b5b81811015620003ec57620003e05f82620003ae565b600181019050620003cb565b5050565b601f8211156200043b576200040581620002c4565b6200041084620002d6565b8101602085101562000420578190505b620004386200042f85620002d6565b830182620003ca565b50505b505050565b5f82821c905092915050565b5f6200045d5f198460080262000440565b1980831691505092915050565b5f6200047783836200044c565b9150826002028217905092915050565b62000492826200022c565b67ffffffffffffffff811115620004ae57620004ad62000236565b5b620004ba825462000290565b620004c7828285620003f0565b5f60209050601f831160018114620004fd575f8415620004e8578287015190505b620004f485826200046a565b86555062000563565b601f1984166200050d86620002c4565b5f5b8281101562000536578489015182556001820191506020850194506020810190506200050f565b8683101562000556578489015162000552601f8916826200044c565b8355505b6001600288020188555050505b505050505050565b6124c280620005795f395ff3fe608060405260043610610129575f3560e01c806370a08231116100aa578063a48217191161006e578063a4821719146103cf578063a9059cbb146103d9578063b948348c14610415578063dd62ed3e14610431578063efc08a621461046d578063f2fde38b1461049757610129565b806370a08231146102ed578063715018a6146103295780638da5cb5b1461033f57806395d89b4114610369578063a457c2d71461039357610129565b8063313ce567116100f1578063313ce56714610221578063395093511461024b5780633ccfd60b1461028757806351958a561461029d5780636178efee146102c557610129565b806306fdde031461012d578063095ea7b314610157578063159816501461019357806318160ddd146101bb57806323b872dd146101e5575b5f80fd5b348015610138575f80fd5b506101416104bf565b60405161014e919061171b565b60405180910390f35b348015610162575f80fd5b5061017d600480360381019061017891906117cc565b61054f565b60405161018a9190611824565b60405180910390f35b34801561019e575f80fd5b506101b960048036038101906101b4919061183d565b61056c565b005b3480156101c6575f80fd5b506101cf6105f2565b6040516101dc9190611877565b60405180910390f35b3480156101f0575f80fd5b5061020b60048036038101906102069190611890565b6105fb565b6040516102189190611824565b60405180910390f35b34801561022c575f80fd5b506102356106ed565b60405161024291906118fb565b60405180910390f35b348015610256575f80fd5b50610271600480360381019061026c91906117cc565b6106f5565b60405161027e9190611824565b60405180910390f35b348015610292575f80fd5b5061029b61079c565b005b3480156102a8575f80fd5b506102c360048036038101906102be91906117cc565b610865565b005b3480156102d0575f80fd5b506102eb60048036038101906102e6919061183d565b610892565b005b3480156102f8575f80fd5b50610313600480360381019061030e9190611914565b61095e565b6040516103209190611877565b60405180910390f35b348015610334575f80fd5b5061033d6109a3565b005b34801561034a575f80fd5b50610353610a2a565b604051610360919061194e565b60405180910390f35b348015610374575f80fd5b5061037d610a52565b60405161038a919061171b565b60405180910390f35b34801561039e575f80fd5b506103b960048036038101906103b491906117cc565b610ae2565b6040516103c69190611824565b60405180910390f35b6103d7610bc8565b005b3480156103e4575f80fd5b506103ff60048036038101906103fa91906117cc565b610c4c565b60405161040c9190611824565b60405180910390f35b61042f600480360381019061042a919061183d565b610c69565b005b34801561043c575f80fd5b5061045760048036038101906104529190611967565b610ce4565b6040516104649190611877565b60405180910390f35b348015610478575f80fd5b50610481610d66565b60405161048e9190611877565b60405180910390f35b3480156104a2575f80fd5b506104bd60048036038101906104b89190611914565b610d6c565b005b6060600380546104ce906119d2565b80601f01602080910402602001604051908101604052809291908181526020018280546104fa906119d2565b80156105455780601f1061051c57610100808354040283529160200191610545565b820191905f5260205f20905b81548152906001019060200180831161052857829003601f168201915b5050505050905090565b5f61056261055b610e62565b8484610e69565b6001905092915050565b610574610e62565b73ffffffffffffffffffffffffffffffffffffffff16610592610a2a565b73ffffffffffffffffffffffffffffffffffffffff16146105e8576040517f08c379a00000000000000000000000000000000000000000000000000000000081526004016105df90611a4c565b60405180910390fd5b8060068190555050565b5f600254905090565b5f61060784848461102c565b5f60015f8673ffffffffffffffffffffffffffffffffffffffff1673ffffffffffffffffffffffffffffffffffffffff1681526020019081526020015f205f61064e610e62565b73ffffffffffffffffffffffffffffffffffffffff1673ffffffffffffffffffffffffffffffffffffffff1681526020019081526020015f20549050828110156106cd576040517f08c379a00000000000000000000000000000000000000000000000000000000081526004016106c490611ada565b60405180910390fd5b6106e1856106d9610e62565b858403610e69565b60019150509392505050565b5f6012905090565b5f610792610701610e62565b848460015f61070e610e62565b73ffffffffffffffffffffffffffffffffffffffff1673ffffffffffffffffffffffffffffffffffffffff1681526020019081526020015f205f8873ffffffffffffffffffffffffffffffffffffffff1673ffffffffffffffffffffffffffffffffffffffff1681526020019081526020015f205461078d9190611b25565b610e69565b6001905092915050565b6107a4610e62565b73ffffffffffffffffffffffffffffffffffffffff166107c2610a2a565b73ffffffffffffffffffffffffffffffffffffffff1614610818576040517f08c379a000000000000000000000000000000000000000000000000000000000815260040161080f90611a4c565b60405180910390fd5b610820610a2a565b73ffffffffffffffffffffffffffffffffffffffff166108fc4790811502906040515f60405180830381858888f19350505050158015610862573d5f803e3d5ffd5b50565b61088e33836108726106ed565b600a61087e9190611c87565b846108899190611cd1565b61102c565b5050565b8061089c3361095e565b10156108dd576040517f08c379a00000000000000000000000000000000000000000000000000000000081526004016108d490611d82565b60405180910390fd5b5f6006546108e96106ed565b600a6108f59190611c87565b836109009190611dcd565b61090a9190611cd1565b90503373ffffffffffffffffffffffffffffffffffffffff166108fc8290811502906040515f60405180830381858888f1935050505015801561094f573d5f803e3d5ffd5b5061095a33836112a1565b5050565b5f805f8373ffffffffffffffffffffffffffffffffffffffff1673ffffffffffffffffffffffffffffffffffffffff1681526020019081526020015f20549050919050565b6109ab610e62565b73ffffffffffffffffffffffffffffffffffffffff166109c9610a2a565b73ffffffffffffffffffffffffffffffffffffffff1614610a1f576040517f08c379a0000000000000000000000000000000000000000000000000000000008152600401610a1690611a4c565b60405180910390fd5b610a285f61146d565b565b5f60055f9054906101000a900473ffffffffffffffffffffffffffffffffffffffff16905090565b606060048054610a61906119d2565b80601f0160208091040260200160405190810160405280929190818152602001828054610a8d906119d2565b8015610ad85780601f10610aaf57610100808354040283529160200191610ad8565b820191905f5260205f20905b815481529060010190602001808311610abb57829003601f168201915b5050505050905090565b5f8060015f610aef610e62565b73ffffffffffffffffffffffffffffffffffffffff1673ffffffffffffffffffffffffffffffffffffffff1681526020019081526020015f205f8573ffffffffffffffffffffffffffffffffffffffff1673ffffffffffffffffffffffffffffffffffffffff1681526020019081526020015f2054905082811015610ba9576040517f08c379a0000000000000000000000000000000000000000000000000000000008152600401610ba090611e6d565b60405180910390fd5b610bbd610bb4610e62565b85858403610e69565b600191505092915050565b600654341015610c0d576040517f08c379a0000000000000000000000000000000000000000000000000000000008152600401610c0490611efb565b60405180910390fd5b5f60065434610c1c9190611dcd565b9050610c266106ed565b600a610c329190611c87565b81610c3d9190611cd1565b9050610c493382611530565b50565b5f610c5f610c58610e62565b848461102c565b6001905092915050565b80600654610c779190611cd1565b341015610cb9576040517f08c379a0000000000000000000000000000000000000000000000000000000008152600401610cb090611f63565b60405180910390fd5b610ce133610cc56106ed565b600a610cd19190611c87565b83610cdc9190611cd1565b611530565b50565b5f60015f8473ffffffffffffffffffffffffffffffffffffffff1673ffffffffffffffffffffffffffffffffffffffff1681526020019081526020015f205f8373ffffffffffffffffffffffffffffffffffffffff1673ffffffffffffffffffffffffffffffffffffffff1681526020019081526020015f2054905092915050565b60065481565b610d74610e62565b73ffffffffffffffffffffffffffffffffffffffff16610d92610a2a565b73ffffffffffffffffffffffffffffffffffffffff1614610de8576040517f08c379a0000000000000000000000000000000000000000000000000000000008152600401610ddf90611a4c565b60405180910390fd5b5f73ffffffffffffffffffffffffffffffffffffffff168173ffffffffffffffffffffffffffffffffffffffff1603610e56576040517f08c379a0000000000000000000000000000000000000000000000000000000008152600401610e4d90611ff1565b60405180910390fd5b610e5f8161146d565b50565b5f33905090565b5f73ffffffffffffffffffffffffffffffffffffffff168373ffffffffffffffffffffffffffffffffffffffff1603610ed7576040517f08c379a0000000000000000000000000000000000000000000000000000000008152600401610ece9061207f565b60405180910390fd5b5f73ffffffffffffffffffffffffffffffffffffffff168273ffffffffffffffffffffffffffffffffffffffff1603610f45576040517f08c379a0000000000000000000000000000000000000000000000000000000008152600401610f3c9061210d565b60405180910390fd5b8060015f8573ffffffffffffffffffffffffffffffffffffffff1673ffffffffffffffffffffffffffffffffffffffff1681526020019081526020015f205f8473ffffffffffffffffffffffffffffffffffffffff1673ffffffffffffffffffffffffffffffffffffffff1681526020019081526020015f20819055508173ffffffffffffffffffffffffffffffffffffffff168373ffffffffffffffffffffffffffffffffffffffff167f8c5be1e5ebec7d5bd14f71427d1e84f3dd0314c0f7b2291e5b200ac8c7c3b9258360405161101f9190611877565b60405180910390a3505050565b5f73ffffffffffffffffffffffffffffffffffffffff168373ffffffffffffffffffffffffffffffffffffffff160361109a576040517f08c379a00000000000000000000000000000000000000000000000000000000081526004016110919061219b565b60405180910390fd5b5f73ffffffffffffffffffffffffffffffffffffffff168273ffffffffffffffffffffffffffffffffffffffff1603611108576040517f08c379a00000000000000000000000000000000000000000000000000000000081526004016110ff90612229565b60405180910390fd5b611113838383611687565b5f805f8573ffffffffffffffffffffffffffffffffffffffff1673ffffffffffffffffffffffffffffffffffffffff1681526020019081526020015f2054905081811015611196576040517f08c379a000000000000000000000000000000000000000000000000000000000815260040161118d906122b7565b60405180910390fd5b8181035f808673ffffffffffffffffffffffffffffffffffffffff1673ffffffffffffffffffffffffffffffffffffffff1681526020019081526020015f2081905550815f808573ffffffffffffffffffffffffffffffffffffffff1673ffffffffffffffffffffffffffffffffffffffff1681526020019081526020015f205f8282546112249190611b25565b925050819055508273ffffffffffffffffffffffffffffffffffffffff168473ffffffffffffffffffffffffffffffffffffffff167fddf252ad1be2c89b69c2b068fc378daa952ba7f163c4a11628f55a4df523b3ef846040516112889190611877565b60405180910390a361129b84848461168c565b50505050565b5f73ffffffffffffffffffffffffffffffffffffffff168273ffffffffffffffffffffffffffffffffffffffff160361130f576040517f08c379a000000000000000000000000000000000000000000000000000000000815260040161130690612345565b60405180910390fd5b61131a825f83611687565b5f805f8473ffffffffffffffffffffffffffffffffffffffff1673ffffffffffffffffffffffffffffffffffffffff1681526020019081526020015f205490508181101561139d576040517f08c379a0000000000000000000000000000000000000000000000000000000008152600401611394906123d3565b60405180910390fd5b8181035f808573ffffffffffffffffffffffffffffffffffffffff1673ffffffffffffffffffffffffffffffffffffffff1681526020019081526020015f20819055508160025f8282546113f191906123f1565b925050819055505f73ffffffffffffffffffffffffffffffffffffffff168373ffffffffffffffffffffffffffffffffffffffff167fddf252ad1be2c89b69c2b068fc378daa952ba7f163c4a11628f55a4df523b3ef846040516114559190611877565b60405180910390a3611468835f8461168c565b505050565b5f60055f9054906101000a900473ffffffffffffffffffffffffffffffffffffffff1690508160055f6101000a81548173ffffffffffffffffffffffffffffffffffffffff021916908373ffffffffffffffffffffffffffffffffffffffff1602179055508173ffffffffffffffffffffffffffffffffffffffff168173ffffffffffffffffffffffffffffffffffffffff167f8be0079c531659141344cd1fd0a4f28419497f9722a3daafe3b4186f6b6457e060405160405180910390a35050565b5f73ffffffffffffffffffffffffffffffffffffffff168273ffffffffffffffffffffffffffffffffffffffff160361159e576040517f08c379a00000000000000000000000000000000000000000000000000000000081526004016115959061246e565b60405180910390fd5b6115a95f8383611687565b8060025f8282546115ba9190611b25565b92505081905550805f808473ffffffffffffffffffffffffffffffffffffffff1673ffffffffffffffffffffffffffffffffffffffff1681526020019081526020015f205f82825461160c9190611b25565b925050819055508173ffffffffffffffffffffffffffffffffffffffff165f73ffffffffffffffffffffffffffffffffffffffff167fddf252ad1be2c89b69c2b068fc378daa952ba7f163c4a11628f55a4df523b3ef836040516116709190611877565b60405180910390a36116835f838361168c565b5050565b505050565b505050565b5f81519050919050565b5f82825260208201905092915050565b5f5b838110156116c85780820151818401526020810190506116ad565b5f8484015250505050565b5f601f19601f8301169050919050565b5f6116ed82611691565b6116f7818561169b565b93506117078185602086016116ab565b611710816116d3565b840191505092915050565b5f6020820190508181035f83015261173381846116e3565b905092915050565b5f80fd5b5f73ffffffffffffffffffffffffffffffffffffffff82169050919050565b5f6117688261173f565b9050919050565b6117788161175e565b8114611782575f80fd5b50565b5f813590506117938161176f565b92915050565b5f819050919050565b6117ab81611799565b81146117b5575f80fd5b50565b5f813590506117c6816117a2565b92915050565b5f80604083850312156117e2576117e161173b565b5b5f6117ef85828601611785565b9250506020611800858286016117b8565b9150509250929050565b5f8115159050919050565b61181e8161180a565b82525050565b5f6020820190506118375f830184611815565b92915050565b5f602082840312156118525761185161173b565b5b5f61185f848285016117b8565b91505092915050565b61187181611799565b82525050565b5f60208201905061188a5f830184611868565b92915050565b5f805f606084860312156118a7576118a661173b565b5b5f6118b486828701611785565b93505060206118c586828701611785565b92505060406118d6868287016117b8565b9150509250925092565b5f60ff82169050919050565b6118f5816118e0565b82525050565b5f60208201905061190e5f8301846118ec565b92915050565b5f602082840312156119295761192861173b565b5b5f61193684828501611785565b91505092915050565b6119488161175e565b82525050565b5f6020820190506119615f83018461193f565b92915050565b5f806040838503121561197d5761197c61173b565b5b5f61198a85828601611785565b925050602061199b85828601611785565b9150509250929050565b7f4e487b71000000000000000000000000000000000000000000000000000000005f52602260045260245ffd5b5f60028204905060018216806119e957607f821691505b6020821081036119fc576119fb6119a5565b5b50919050565b7f4f776e61626c653a2063616c6c6572206973206e6f7420746865206f776e65725f82015250565b5f611a3660208361169b565b9150611a4182611a02565b602082019050919050565b5f6020820190508181035f830152611a6381611a2a565b9050919050565b7f45524332303a207472616e7366657220616d6f756e74206578636565647320615f8201527f6c6c6f77616e6365000000000000000000000000000000000000000000000000602082015250565b5f611ac460288361169b565b9150611acf82611a6a565b604082019050919050565b5f6020820190508181035f830152611af181611ab8565b9050919050565b7f4e487b71000000000000000000000000000000000000000000000000000000005f52601160045260245ffd5b5f611b2f82611799565b9150611b3a83611799565b9250828201905080821115611b5257611b51611af8565b5b92915050565b5f8160011c9050919050565b5f808291508390505b6001851115611bad57808604811115611b8957611b88611af8565b5b6001851615611b985780820291505b8081029050611ba685611b58565b9450611b6d565b94509492505050565b5f82611bc55760019050611c80565b81611bd2575f9050611c80565b8160018114611be85760028114611bf257611c21565b6001915050611c80565b60ff841115611c0457611c03611af8565b5b8360020a915084821115611c1b57611c1a611af8565b5b50611c80565b5060208310610133831016604e8410600b8410161715611c565782820a905083811115611c5157611c50611af8565b5b611c80565b611c638484846001611b64565b92509050818404811115611c7a57611c79611af8565b5b81810290505b9392505050565b5f611c9182611799565b9150611c9c836118e0565b9250611cc97fffffffffffffffffffffffffffffffffffffffffffffffffffffffffffffffff8484611bb6565b905092915050565b5f611cdb82611799565b9150611ce683611799565b9250828202611cf481611799565b91508282048414831517611d0b57611d0a611af8565b5b5092915050565b7f4e6f7420656e6f75676820746f6b656e7320696e20796f7572206163636f756e5f8201527f7421000000000000000000000000000000000000000000000000000000000000602082015250565b5f611d6c60228361169b565b9150611d7782611d12565b604082019050919050565b5f6020820190508181035f830152611d9981611d60565b9050919050565b7f4e487b71000000000000000000000000000000000000000000000000000000005f52601260045260245ffd5b5f611dd782611799565b9150611de283611799565b925082611df257611df1611da0565b5b828204905092915050565b7f45524332303a2064656372656173656420616c6c6f77616e63652062656c6f775f8201527f207a65726f000000000000000000000000000000000000000000000000000000602082015250565b5f611e5760258361169b565b9150611e6282611dfd565b604082019050919050565b5f6020820190508181035f830152611e8481611e4b565b9050919050565b7f4e6f7420656e6f756768204554482073656e743b20636865636b2070726963655f8201527f2100000000000000000000000000000000000000000000000000000000000000602082015250565b5f611ee560218361169b565b9150611ef082611e8b565b604082019050919050565b5f6020820190508181035f830152611f1281611ed9565b9050919050565b7f4e6f7420656e6f7567682045746865722073656e7400000000000000000000005f82015250565b5f611f4d60158361169b565b9150611f5882611f19565b602082019050919050565b5f6020820190508181035f830152611f7a81611f41565b9050919050565b7f4f776e61626c653a206e6577206f776e657220697320746865207a65726f20615f8201527f6464726573730000000000000000000000000000000000000000000000000000602082015250565b5f611fdb60268361169b565b9150611fe682611f81565b604082019050919050565b5f6020820190508181035f83015261200881611fcf565b9050919050565b7f45524332303a20617070726f76652066726f6d20746865207a65726f206164645f8201527f7265737300000000000000000000000000000000000000000000000000000000602082015250565b5f61206960248361169b565b91506120748261200f565b604082019050919050565b5f6020820190508181035f8301526120968161205d565b9050919050565b7f45524332303a20617070726f766520746f20746865207a65726f2061646472655f8201527f7373000000000000000000000000000000000000000000000000000000000000602082015250565b5f6120f760228361169b565b91506121028261209d565b604082019050919050565b5f6020820190508181035f830152612124816120eb565b9050919050565b7f45524332303a207472616e736665722066726f6d20746865207a65726f2061645f8201527f6472657373000000000000000000000000000000000000000000000000000000602082015250565b5f61218560258361169b565b91506121908261212b565b604082019050919050565b5f6020820190508181035f8301526121b281612179565b9050919050565b7f45524332303a207472616e7366657220746f20746865207a65726f20616464725f8201527f6573730000000000000000000000000000000000000000000000000000000000602082015250565b5f61221360238361169b565b915061221e826121b9565b604082019050919050565b5f6020820190508181035f83015261224081612207565b9050919050565b7f45524332303a207472616e7366657220616d6f756e74206578636565647320625f8201527f616c616e63650000000000000000000000000000000000000000000000000000602082015250565b5f6122a160268361169b565b91506122ac82612247565b604082019050919050565b5f6020820190508181035f8301526122ce81612295565b9050919050565b7f45524332303a206275726e2066726f6d20746865207a65726f206164647265735f8201527f7300000000000000000000000000000000000000000000000000000000000000602082015250565b5f61232f60218361169b565b915061233a826122d5565b604082019050919050565b5f6020820190508181035f83015261235c81612323565b9050919050565b7f45524332303a206275726e20616d6f756e7420657863656564732062616c616e5f8201527f6365000000000000000000000000000000000000000000000000000000000000602082015250565b5f6123bd60228361169b565b91506123c882612363565b604082019050919050565b5f6020820190508181035f8301526123ea816123b1565b9050919050565b5f6123fb82611799565b915061240683611799565b925082820390508181111561241e5761241d611af8565b5b92915050565b7f45524332303a206d696e7420746f20746865207a65726f2061646472657373005f82015250565b5f612458601f8361169b565b915061246382612424565b602082019050919050565b5f6020820190508181035f8301526124858161244c565b905091905056fea26469706673582212209328b382699fa7b13963f0216634d4e17bc46d420688780294bb981c6cf3a5e064736f6c63430008150033",
  "immutableReferences": {},
  "source": "// SPDX-License-Identifier: MIT\r\npragma solidity ^0.8.0;\r\n\r\nimport \"@openzeppelin/contracts/token/ERC20/ERC20.sol\";\r\nimport \"@openzeppelin/contracts/access/Ownable.sol\";\r\n\r\ncontract TicketToken is ERC20, Ownable {\r\n    uint256 public ticketPriceInWei;\r\n\r\n    constructor(uint256 _ticketPriceInWei) ERC20(\"TicketToken\", \"TICKET\") {\r\n        ticketPriceInWei = _ticketPriceInWei;\r\n    }\r\n\r\n    function purchaseTicket(uint256 amount) external payable {\r\n        require(\r\n            msg.value >= ticketPriceInWei * amount,\r\n            \"Not enough Ether sent\"\r\n        );\r\n        _mint(msg.sender, amount * 10 ** decimals());\r\n    }\r\n\r\n    function transferTicket(address recipient, uint256 amount) external {\r\n        _transfer(msg.sender, recipient, amount * 10 ** decimals());\r\n    }\r\n\r\n    function withdraw() external onlyOwner {\r\n        payable(owner()).transfer(address(this).balance);\r\n    }\r\n\r\n    function setTicketPrice(uint256 _ticketPriceInWei) external onlyOwner {\r\n        ticketPriceInWei = _ticketPriceInWei;\r\n    }\r\n\r\n    function buyToken() external payable {\r\n        require(\r\n            msg.value >= ticketPriceInWei,\r\n            \"Not enough ETH sent; check price!\"\r\n        );\r\n        uint256 tokenAmount = msg.value / ticketPriceInWei;\r\n        tokenAmount = tokenAmount * 10 ** decimals();\r\n        _mint(msg.sender, tokenAmount);\r\n    }\r\n\r\n    function returnToken(uint256 amount) external {\r\n        require(\r\n            balanceOf(msg.sender) >= amount,\r\n            \"Not enough tokens in your account!\"\r\n        );\r\n        uint256 ethAmount = (amount / 10 ** decimals()) * ticketPriceInWei;\r\n        payable(msg.sender).transfer(ethAmount);\r\n        _burn(msg.sender, amount);\r\n    }\r\n}\r\n",
  "sourcePath": "C:\\Users\\PC\\OneDrive - University of Limerick\\2nd Year\\CS4445-HCC\\Dev\\repos\\Blockchain\\contracts\\TicketToken.sol",
  "compiler": {
    "name": "solc",
    "version": "0.8.21+commit.d9974bed.Emscripten.clang"
  },
  "schemaVersion": "3.4.16",
  "updatedAt": "2024-05-22T17:16:01.978Z",
  "devdoc": {
    "events": {
      "Approval(address,address,uint256)": {
        "details": "Emitted when the allowance of a `spender` for an `owner` is set by a call to {approve}. `value` is the new allowance."
      },
      "Transfer(address,address,uint256)": {
        "details": "Emitted when `value` tokens are moved from one account (`from`) to another (`to`). Note that `value` may be zero."
      }
    },
    "kind": "dev",
    "methods": {
      "allowance(address,address)": {
        "details": "See {IERC20-allowance}."
      },
      "approve(address,uint256)": {
        "details": "See {IERC20-approve}. Requirements: - `spender` cannot be the zero address."
      },
      "balanceOf(address)": {
        "details": "See {IERC20-balanceOf}."
      },
      "decimals()": {
        "details": "Returns the number of decimals used to get its user representation. For example, if `decimals` equals `2`, a balance of `505` tokens should be displayed to a user as `5.05` (`505 / 10 ** 2`). Tokens usually opt for a value of 18, imitating the relationship between Ether and Wei. This is the value {ERC20} uses, unless this function is overridden; NOTE: This information is only used for _display_ purposes: it in no way affects any of the arithmetic of the contract, including {IERC20-balanceOf} and {IERC20-transfer}."
      },
      "decreaseAllowance(address,uint256)": {
        "details": "Atomically decreases the allowance granted to `spender` by the caller. This is an alternative to {approve} that can be used as a mitigation for problems described in {IERC20-approve}. Emits an {Approval} event indicating the updated allowance. Requirements: - `spender` cannot be the zero address. - `spender` must have allowance for the caller of at least `subtractedValue`."
      },
      "increaseAllowance(address,uint256)": {
        "details": "Atomically increases the allowance granted to `spender` by the caller. This is an alternative to {approve} that can be used as a mitigation for problems described in {IERC20-approve}. Emits an {Approval} event indicating the updated allowance. Requirements: - `spender` cannot be the zero address."
      },
      "name()": {
        "details": "Returns the name of the token."
      },
      "owner()": {
        "details": "Returns the address of the current owner."
      },
      "renounceOwnership()": {
        "details": "Leaves the contract without owner. It will not be possible to call `onlyOwner` functions anymore. Can only be called by the current owner. NOTE: Renouncing ownership will leave the contract without an owner, thereby removing any functionality that is only available to the owner."
      },
      "symbol()": {
        "details": "Returns the symbol of the token, usually a shorter version of the name."
      },
      "totalSupply()": {
        "details": "See {IERC20-totalSupply}."
      },
      "transfer(address,uint256)": {
        "details": "See {IERC20-transfer}. Requirements: - `recipient` cannot be the zero address. - the caller must have a balance of at least `amount`."
      },
      "transferFrom(address,address,uint256)": {
        "details": "See {IERC20-transferFrom}. Emits an {Approval} event indicating the updated allowance. This is not required by the EIP. See the note at the beginning of {ERC20}. Requirements: - `sender` and `recipient` cannot be the zero address. - `sender` must have a balance of at least `amount`. - the caller must have allowance for ``sender``'s tokens of at least `amount`."
      },
      "transferOwnership(address)": {
        "details": "Transfers ownership of the contract to a new account (`newOwner`). Can only be called by the current owner."
      }
    },
    "version": 1
  },
  "userdoc": {
    "kind": "user",
    "methods": {},
    "version": 1
  }
}